{
  "_format": "hh-sol-artifact-1",
  "contractName": "BookmarkManager",
  "sourceName": "contracts/BookmarkManager.sol",
  "abi": [
    {
      "anonymous": false,
      "inputs": [
        {
          "indexed": true,
          "internalType": "address",
          "name": "user",
          "type": "address"
        },
        {
          "indexed": false,
          "internalType": "uint256",
          "name": "id",
          "type": "uint256"
        },
        {
          "indexed": false,
          "internalType": "string",
          "name": "title",
          "type": "string"
        },
        {
          "indexed": false,
          "internalType": "string",
          "name": "url",
          "type": "string"
        },
        {
          "indexed": false,
          "internalType": "string",
          "name": "tag",
          "type": "string"
        }
      ],
      "name": "BookmarkAdded",
      "type": "event"
    },
    {
      "anonymous": false,
      "inputs": [
        {
          "indexed": true,
          "internalType": "address",
          "name": "user",
          "type": "address"
        },
        {
          "indexed": false,
          "internalType": "uint256",
          "name": "id",
          "type": "uint256"
        }
      ],
      "name": "BookmarkDeleted",
      "type": "event"
    },
    {
      "inputs": [
        {
          "internalType": "string",
          "name": "title",
          "type": "string"
        },
        {
          "internalType": "string",
          "name": "url",
          "type": "string"
        },
        {
          "internalType": "string",
          "name": "tag",
          "type": "string"
        }
      ],
      "name": "addBookmark",
      "outputs": [],
      "stateMutability": "nonpayable",
      "type": "function"
    },
    {
      "inputs": [
        {
          "internalType": "uint256",
          "name": "id",
          "type": "uint256"
        }
      ],
      "name": "deleteBookmark",
      "outputs": [],
      "stateMutability": "nonpayable",
      "type": "function"
    },
    {
      "inputs": [],
      "name": "getBookmarkCount",
      "outputs": [
        {
          "internalType": "uint256",
          "name": "",
          "type": "uint256"
        }
      ],
      "stateMutability": "view",
      "type": "function"
    },
    {
      "inputs": [],
      "name": "getBookmarks",
      "outputs": [
        {
          "components": [
            {
              "internalType": "uint256",
              "name": "id",
              "type": "uint256"
            },
            {
              "internalType": "string",
              "name": "title",
              "type": "string"
            },
            {
              "internalType": "string",
              "name": "url",
              "type": "string"
            },
            {
              "internalType": "string",
              "name": "tag",
              "type": "string"
            },
            {
              "internalType": "uint256",
              "name": "createdAt",
              "type": "uint256"
            },
            {
              "internalType": "bool",
              "name": "deleted",
              "type": "bool"
            }
          ],
          "internalType": "struct BookmarkManager.Bookmark[]",
          "name": "",
          "type": "tuple[]"
        }
      ],
      "stateMutability": "view",
      "type": "function"
    }
  ],
  "bytecode": "0x608060405234801561001057600080fd5b50610c63806100206000396000f3fe608060405234801561001057600080fd5b506004361061004c5760003560e01c80630a0232191461005157806336add29d1461006c57806345d9bd1514610081578063c778baa514610096575b600080fd5b6100596100a9565b6040519081526020015b60405180910390f35b61007f61007a366004610814565b610118565b005b610089610254565b6040516100639190610873565b61007f6100a436600461097e565b6105cd565b33600090815260208190526040812081805b8254811015610111578281815481106100d6576100d6610a18565b600091825260209091206005600690920201015460ff166100ff57816100fb81610a2e565b9250505b8061010981610a2e565b9150506100bb565b5092915050565b336000908152602081905260408120905b8154811015610211578282828154811061014557610145610a18565b90600052602060002090600602016000015414801561018a575081818154811061017157610171610a18565b600091825260209091206005600690920201015460ff16155b156101ff5760018282815481106101a3576101a3610a18565b6000918252602091829020600690910201600501805460ff19169215159290921790915560405184815233917fa2c3072100315d22801636369611dbc157ec5273b72b71da83e7de5d6799e679910160405180910390a2505050565b8061020981610a2e565b915050610129565b5060405162461bcd60e51b8152602060048201526012602482015271109bdbdadb585c9ac81b9bdd08199bdd5b9960721b60448201526064015b60405180910390fd5b336000908152602081905260408120606091805b82548110156102be5782818154811061028357610283610a18565b600091825260209091206005600690920201015460ff166102ac57816102a881610a2e565b9250505b806102b681610a2e565b915050610268565b5060008167ffffffffffffffff8111156102da576102da610a55565b60405190808252806020026020018201604052801561034657816020015b6103336040518060c0016040528060008152602001606081526020016060815260200160608152602001600081526020016000151581525090565b8152602001906001900390816102f85790505b5090506000805b84548110156105c35784818154811061036857610368610a18565b600091825260209091206005600690920201015460ff166105b15784818154811061039557610395610a18565b90600052602060002090600602016040518060c0016040529081600082015481526020016001820180546103c890610a6b565b80601f01602080910402602001604051908101604052809291908181526020018280546103f490610a6b565b80156104415780601f1061041657610100808354040283529160200191610441565b820191906000526020600020905b81548152906001019060200180831161042457829003601f168201915b5050505050815260200160028201805461045a90610a6b565b80601f016020809104026020016040519081016040528092919081815260200182805461048690610a6b565b80156104d35780601f106104a8576101008083540402835291602001916104d3565b820191906000526020600020905b8154815290600101906020018083116104b657829003601f168201915b505050505081526020016003820180546104ec90610a6b565b80601f016020809104026020016040519081016040528092919081815260200182805461051890610a6b565b80156105655780601f1061053a57610100808354040283529160200191610565565b820191906000526020600020905b81548152906001019060200180831161054857829003601f168201915b50505091835250506004820154602082015260059091015460ff161515604090910152838361059381610a2e565b9450815181106105a5576105a5610a18565b60200260200101819052505b806105bb81610a2e565b91505061034d565b5090949350505050565b8461060b5760405162461bcd60e51b815260206004820152600e60248201526d151a5d1b19481c995c5d5a5c995960921b604482015260640161024b565b826106475760405162461bcd60e51b815260206004820152600c60248201526b155493081c995c5d5a5c995960a21b604482015260640161024b565b3360009081526001602052604081208054908261066383610a2e565b909155503360009081526020818152604091829020825160c0810184528481528351601f8c018490048402810184019094528a84529394509291828201918b908b9081908401838280828437600092019190915250505090825250604080516020601f8a0181900481028201810190925288815291810191908990899081908401838280828437600092019190915250505090825250604080516020601f88018190048102820181019092528681529181019190879087908190840183828082843760009201829052509385525050426020808501919091526040909301829052508354600181810186559482529082902083516006909202019081559082015191929091908201906107769082610af4565b506040820151600282019061078b9082610af4565b50606082015160038201906107a09082610af4565b506080820151600482015560a0909101516005909101805460ff191691151591909117905560405133907f17238905d8d5110a23da904a41c83c12da5f7897b9659a0d4f081c9dcad32777906108039084908b908b908b908b908b908b90610bdd565b60405180910390a250505050505050565b60006020828403121561082657600080fd5b5035919050565b6000815180845260005b8181101561085357602081850181015186830182015201610837565b506000602082860101526020601f19601f83011685010191505092915050565b60006020808301818452808551808352604092508286019150828160051b87010184880160005b8381101561092757603f19898403018552815160c08151855288820151818a8701526108c88287018261082d565b91505087820151858203898701526108e0828261082d565b915050606080830151868303828801526108fa838261082d565b6080858101519089015260a09485015115159490970193909352505050938601939086019060010161089a565b509098975050505050505050565b60008083601f84011261094757600080fd5b50813567ffffffffffffffff81111561095f57600080fd5b60208301915083602082850101111561097757600080fd5b9250929050565b6000806000806000806060878903121561099757600080fd5b863567ffffffffffffffff808211156109af57600080fd5b6109bb8a838b01610935565b909850965060208901359150808211156109d457600080fd5b6109e08a838b01610935565b909650945060408901359150808211156109f957600080fd5b50610a0689828a01610935565b979a9699509497509295939492505050565b634e487b7160e01b600052603260045260246000fd5b600060018201610a4e57634e487b7160e01b600052601160045260246000fd5b5060010190565b634e487b7160e01b600052604160045260246000fd5b600181811c90821680610a7f57607f821691505b602082108103610a9f57634e487b7160e01b600052602260045260246000fd5b50919050565b601f821115610aef57600081815260208120601f850160051c81016020861015610acc5750805b601f850160051c820191505b81811015610aeb57828155600101610ad8565b5050505b505050565b815167ffffffffffffffff811115610b0e57610b0e610a55565b610b2281610b1c8454610a6b565b84610aa5565b602080601f831160018114610b575760008415610b3f5750858301515b600019600386901b1c1916600185901b178555610aeb565b600085815260208120601f198616915b82811015610b8657888601518255948401946001909101908401610b67565b5085821015610ba45787850151600019600388901b60f8161c191681555b5050505050600190811b01905550565b81835281816020850137506000828201602090810191909152601f909101601f19169091010190565b878152608060208201526000610bf760808301888a610bb4565b8281036040840152610c0a818789610bb4565b90508281036060840152610c1f818587610bb4565b9a995050505050505050505056fea2646970667358221220c01e2fdca9483daf2fd36467a15bd9ae097973cfe8597900a61d07ce60b501bb64736f6c63430008140033",
  "linkReferences": {},
  "deployedLinkReferences": {}
}